{
  "contractName": "Coursetro",
  "abi": [
    {
      "constant": false,
      "inputs": [
        {
          "name": "_fName",
          "type": "string"
        },
        {
          "name": "_age",
          "type": "uint256"
        }
      ],
      "name": "setInstructor",
      "outputs": [],
      "payable": false,
      "stateMutability": "nonpayable",
      "type": "function"
    },
    {
      "constant": true,
      "inputs": [],
      "name": "getInstructor",
      "outputs": [
        {
          "name": "",
          "type": "string"
        },
        {
          "name": "",
          "type": "uint256"
        }
      ],
      "payable": false,
      "stateMutability": "view",
      "type": "function"
    }
  ],
  "bytecode": "0x608060405234801561001057600080fd5b50610359806100206000396000f3fe60806040526004361061004c576000357c0100000000000000000000000000000000000000000000000000000000900463ffffffff16806322faf03a146100515780633c1b81a514610123575b600080fd5b34801561005d57600080fd5b506101216004803603604081101561007457600080fd5b810190808035906020019064010000000081111561009157600080fd5b8201836020820111156100a357600080fd5b803590602001918460018302840111640100000000831117156100c557600080fd5b91908080601f016020809104026020016040519081016040528093929190818152602001838380828437600081840152601f19601f820116905080830192505050505050509192919290803590602001909291905050506101ba565b005b34801561012f57600080fd5b506101386101dc565b6040518080602001838152602001828103825284818151815260200191508051906020019080838360005b8381101561017e578082015181840152602081019050610163565b50505050905090810190601f1680156101ab5780820380516001836020036101000a031916815260200191505b50935050505060405180910390f35b81600090805190602001906101d0929190610288565b50806001819055505050565b6060600080600154818054600181600116156101000203166002900480601f0160208091040260200160405190810160405280929190818152602001828054600181600116156101000203166002900480156102795780601f1061024e57610100808354040283529160200191610279565b820191906000526020600020905b81548152906001019060200180831161025c57829003601f168201915b50505050509150915091509091565b828054600181600116156101000203166002900490600052602060002090601f016020900481019282601f106102c957805160ff19168380011785556102f7565b828001600101855582156102f7579182015b828111156102f65782518255916020019190600101906102db565b5b5090506103049190610308565b5090565b61032a91905b8082111561032657600081600090555060010161030e565b5090565b9056fea165627a7a723058202a289911c88e43dee1ff1011e39a8d9a22f08b8714bdc788b9acd80b4e7ce6f90029",
  "source": "// USES REMIX compile version: \"Current version:0.4.23-nightly.2018.4.19+commit.ae834e3d.Emscripten.clang\"\r\n\r\npragma solidity ^0.5.0;\r\n\r\ncontract Coursetro {\r\n    string fName;\r\n    uint age;\r\n\r\n    function setInstructor(string memory _fName, uint _age) public {\r\n        fName = _fName;\r\n        age = _age;\r\n    }\r\n\r\n    function getInstructor() public view returns (string memory, uint) {\r\n        return (fName, age);\r\n    }\r\n\r\n}\r\n",
  "sourcePath": "C:/xampp/htdocs/Blockchain-Eshop-WebApp/contracts/Coursetro.sol",
  "compiler": {
    "name": "solc",
    "version": "0.5.0+commit.1d4f565a.Emscripten.clang"
  },
  "schemaVersion": "3.0.2",
  "updatedAt": "2019-03-23T10:37:29.743Z",
  "devdoc": {
    "methods": {}
  },
  "userdoc": {
    "methods": {}
  }
}