{
  "contractName": "EscrowCon",
  "abi": [
    {
      "constant": true,
      "inputs": [],
      "name": "seller",
      "outputs": [
        {
          "name": "",
          "type": "address"
        }
      ],
      "payable": false,
      "stateMutability": "view",
      "type": "function",
      "signature": "0x08551a53"
    },
    {
      "constant": true,
      "inputs": [
        {
          "name": "",
          "type": "address"
        }
      ],
      "name": "balances",
      "outputs": [
        {
          "name": "",
          "type": "uint256"
        }
      ],
      "payable": false,
      "stateMutability": "view",
      "type": "function",
      "signature": "0x27e235e3"
    },
    {
      "constant": true,
      "inputs": [],
      "name": "buyer",
      "outputs": [
        {
          "name": "",
          "type": "address"
        }
      ],
      "payable": false,
      "stateMutability": "view",
      "type": "function",
      "signature": "0x7150d8ae"
    },
    {
      "constant": true,
      "inputs": [],
      "name": "itemAmt",
      "outputs": [
        {
          "name": "",
          "type": "uint256"
        }
      ],
      "payable": false,
      "stateMutability": "view",
      "type": "function",
      "signature": "0x949c8066"
    },
    {
      "inputs": [
        {
          "name": "ItemListContractAddress",
          "type": "address"
        }
      ],
      "payable": false,
      "stateMutability": "nonpayable",
      "type": "constructor",
      "signature": "constructor"
    },
    {
      "payable": true,
      "stateMutability": "payable",
      "type": "fallback"
    },
    {
      "anonymous": false,
      "inputs": [
        {
          "indexed": true,
          "name": "from",
          "type": "address"
        },
        {
          "indexed": true,
          "name": "to",
          "type": "address"
        },
        {
          "indexed": false,
          "name": "amount",
          "type": "uint256"
        }
      ],
      "name": "Transfer",
      "type": "event",
      "signature": "0xddf252ad1be2c89b69c2b068fc378daa952ba7f163c4a11628f55a4df523b3ef"
    },
    {
      "constant": false,
      "inputs": [
        {
          "name": "_recevier",
          "type": "address"
        }
      ],
      "name": "buyerToEscrow",
      "outputs": [],
      "payable": true,
      "stateMutability": "payable",
      "type": "function",
      "signature": "0xf964312f"
    },
    {
      "constant": false,
      "inputs": [
        {
          "name": "_recevier",
          "type": "address"
        }
      ],
      "name": "escrowToSeller",
      "outputs": [],
      "payable": true,
      "stateMutability": "payable",
      "type": "function",
      "signature": "0xe89c423b"
    },
    {
      "constant": true,
      "inputs": [],
      "name": "getBuyerAdd",
      "outputs": [
        {
          "name": "",
          "type": "address"
        }
      ],
      "payable": false,
      "stateMutability": "view",
      "type": "function",
      "signature": "0xb931b391"
    },
    {
      "constant": false,
      "inputs": [],
      "name": "getMsgValue",
      "outputs": [
        {
          "name": "",
          "type": "uint256"
        }
      ],
      "payable": true,
      "stateMutability": "payable",
      "type": "function",
      "signature": "0xa17042cc"
    },
    {
      "constant": true,
      "inputs": [],
      "name": "getEscrowContractAdd",
      "outputs": [
        {
          "name": "",
          "type": "address"
        }
      ],
      "payable": false,
      "stateMutability": "view",
      "type": "function",
      "signature": "0x5c9bb4d2"
    },
    {
      "constant": true,
      "inputs": [],
      "name": "getItemAmt",
      "outputs": [
        {
          "name": "",
          "type": "uint256"
        }
      ],
      "payable": false,
      "stateMutability": "view",
      "type": "function",
      "signature": "0x4722b082"
    },
    {
      "constant": true,
      "inputs": [
        {
          "name": "_account",
          "type": "address"
        }
      ],
      "name": "getAccBal",
      "outputs": [
        {
          "name": "",
          "type": "uint256"
        }
      ],
      "payable": false,
      "stateMutability": "view",
      "type": "function",
      "signature": "0x718056fd"
    },
    {
      "constant": true,
      "inputs": [],
      "name": "getContractBal",
      "outputs": [
        {
          "name": "",
          "type": "uint256"
        }
      ],
      "payable": false,
      "stateMutability": "view",
      "type": "function",
      "signature": "0x5d9fa6fc"
    }
  ],
  "bytecode": "0x608060405234801561001057600080fd5b50604051602080610b2a8339810180604052602081101561003057600080fd5b810190808051906020019092919050505080600460006101000a81548173ffffffffffffffffffffffffffffffffffffffff021916908373ffffffffffffffffffffffffffffffffffffffff160217905550600460009054906101000a900473ffffffffffffffffffffffffffffffffffffffff1673ffffffffffffffffffffffffffffffffffffffff1663097086106040518163ffffffff167c010000000000000000000000000000000000000000000000000000000002815260040160206040518083038186803b15801561010657600080fd5b505afa15801561011a573d6000803e3d6000fd5b505050506040513d602081101561013057600080fd5b8101908080519060200190929190505050600260006101000a81548173ffffffffffffffffffffffffffffffffffffffff021916908373ffffffffffffffffffffffffffffffffffffffff160217905550600460009054906101000a900473ffffffffffffffffffffffffffffffffffffffff1673ffffffffffffffffffffffffffffffffffffffff16632083ad826040518163ffffffff167c010000000000000000000000000000000000000000000000000000000002815260040160206040518083038186803b15801561020557600080fd5b505afa158015610219573d6000803e3d6000fd5b505050506040513d602081101561022f57600080fd5b8101908080519060200190929190505050600081905550506108d4806102566000396000f3fe6080604052600436106100ba576000357c0100000000000000000000000000000000000000000000000000000000900463ffffffff16806308551a53146100bc57806327e235e3146101135780634722b082146101785780635c9bb4d2146101a35780635d9fa6fc146101fa5780637150d8ae14610225578063718056fd1461027c578063949c8066146102e1578063a17042cc1461030c578063b931b3911461032a578063e89c423b14610381578063f964312f146103c5575b005b3480156100c857600080fd5b506100d1610409565b604051808273ffffffffffffffffffffffffffffffffffffffff1673ffffffffffffffffffffffffffffffffffffffff16815260200191505060405180910390f35b34801561011f57600080fd5b506101626004803603602081101561013657600080fd5b81019080803573ffffffffffffffffffffffffffffffffffffffff16906020019092919050505061042f565b6040518082815260200191505060405180910390f35b34801561018457600080fd5b5061018d610447565b6040518082815260200191505060405180910390f35b3480156101af57600080fd5b506101b861045b565b604051808273ffffffffffffffffffffffffffffffffffffffff1673ffffffffffffffffffffffffffffffffffffffff16815260200191505060405180910390f35b34801561020657600080fd5b5061020f610463565b6040518082815260200191505060405180910390f35b34801561023157600080fd5b5061023a610482565b604051808273ffffffffffffffffffffffffffffffffffffffff1673ffffffffffffffffffffffffffffffffffffffff16815260200191505060405180910390f35b34801561028857600080fd5b506102cb6004803603602081101561029f57600080fd5b81019080803573ffffffffffffffffffffffffffffffffffffffff1690602001909291905050506104a8565b6040518082815260200191505060405180910390f35b3480156102ed57600080fd5b506102f66104c9565b6040518082815260200191505060405180910390f35b6103146104cf565b6040518082815260200191505060405180910390f35b34801561033657600080fd5b5061033f6104d7565b604051808273ffffffffffffffffffffffffffffffffffffffff1673ffffffffffffffffffffffffffffffffffffffff16815260200191505060405180910390f35b6103c36004803603602081101561039757600080fd5b81019080803573ffffffffffffffffffffffffffffffffffffffff169060200190929190505050610501565b005b610407600480360360208110156103db57600080fd5b81019080803573ffffffffffffffffffffffffffffffffffffffff1690602001909291905050506106b3565b005b600260009054906101000a900473ffffffffffffffffffffffffffffffffffffffff1681565b60056020528060005260406000206000915090505481565b6000670de0b6b3a764000060005402905090565b600030905090565b60003073ffffffffffffffffffffffffffffffffffffffff1631905090565b600160009054906101000a900473ffffffffffffffffffffffffffffffffffffffff1681565b60008173ffffffffffffffffffffffffffffffffffffffff16319050919050565b60005481565b600034905090565b6000600160009054906101000a900473ffffffffffffffffffffffffffffffffffffffff16905090565b600061050b610447565b9050600260009054906101000a900473ffffffffffffffffffffffffffffffffffffffff1673ffffffffffffffffffffffffffffffffffffffff168273ffffffffffffffffffffffffffffffffffffffff161415156105d2576040517f08c379a000000000000000000000000000000000000000000000000000000000815260040180806020018281038252601a8152602001807f4572726f7220647572696e672066756e642072656c656173652e00000000000081525060200191505060405180910390fd5b6105da610463565b8111151515610651576040517f08c379a00000000000000000000000000000000000000000000000000000000081526004018080602001828103825260068152602001807f4572726f722e000000000000000000000000000000000000000000000000000081525060200191505060405180910390fd5b8173ffffffffffffffffffffffffffffffffffffffff166108fc3073ffffffffffffffffffffffffffffffffffffffff16319081150290604051600060405180830381858888f193505050501580156106ae573d6000803e3d6000fd5b505050565b6106bb610447565b34141515610731576040517f08c379a000000000000000000000000000000000000000000000000000000000815260040180806020018281038252601b8152602001807f496e7075742077726f6e67207061796d656e7420616d6f756e742e000000000081525060200191505060405180910390fd5b61073a336104a8565b34111515156107b1576040517f08c379a00000000000000000000000000000000000000000000000000000000081526004018080602001828103825260158152602001807f496e73756666696369656e742062616c616e63652e000000000000000000000081525060200191505060405180910390fd5b8073ffffffffffffffffffffffffffffffffffffffff166108fc349081150290604051600060405180830381858888f193505050501580156107f7573d6000803e3d6000fd5b5033600160006101000a81548173ffffffffffffffffffffffffffffffffffffffff021916908373ffffffffffffffffffffffffffffffffffffffff160217905550426003819055508073ffffffffffffffffffffffffffffffffffffffff163373ffffffffffffffffffffffffffffffffffffffff167fddf252ad1be2c89b69c2b068fc378daa952ba7f163c4a11628f55a4df523b3ef346040518082815260200191505060405180910390a35056fea165627a7a72305820fcdb8e43084aedccc9154a8d03966194ce5abe91ed581bd228118a6a08fe4b5a0029",
  "source": "// USES REMIX compile version: \"Current version:0.5.5-nightly.2019.2.28+commit.e954d83.Emscripten.clang\"\r\n// REMIX requires buyerToEscrow(address payable _recevier) and escrowToSeller(address payable _recevier) instead\r\n\r\n// Contract address => escrow (use truffle to get the contract address when deployed)\r\n// Account 1 => seller address\r\n// Account 2 => buyer address\r\n\r\n// convert uint to wei (*1e18)\r\n\r\npragma solidity >= 0.4.0 < 0.6.0;\r\n\r\ncontract ItemListing {\r\n    \r\n    uint private itemPrice;                                                 // price of the item\r\n    string private itemName;                                                // name of the item\r\n    address private curr_selleradd;                                         // address of the seller selling this item\r\n    int private prodId;                                                     // the id of item\r\n\r\n    constructor () public payable {\r\n        curr_selleradd = msg.sender;\r\n    }\r\n\r\n    function ItemList (string memory item_Name, uint item_Price) public returns (uint) {\r\n        itemName = item_Name;\r\n        itemPrice = item_Price;\r\n        return 1;\r\n    }\r\n\r\n    // get constructor - ItemPrice\r\n    function getItemPrice() public view returns (uint) {\r\n        return itemPrice;   \r\n    }\r\n\r\n    //get constructor - ItemName\r\n    function getItemName() public view returns (string memory) {\r\n        return itemName;\r\n    }\r\n    \r\n    // get constructor - whose creating the contract (seller)\r\n    function getSellerAdd() public view returns (address) {\r\n        return curr_selleradd;\r\n    }\r\n    \r\n    // get constructor - the contract address\r\n    function getItemListContractAdd() public view returns (address) {\r\n        return address(this);\r\n    }\r\n}\r\n\r\ncontract EscrowCon {\r\n    uint public itemAmt;   // the price of the item\r\n    address public buyer;   // buyer address\r\n    address public seller;  // seller address\r\n    uint private start;     // set the timestamp\r\n    ItemListing iL;\r\n\r\n    // maps addresses to balances e.g. hashtables\r\n    mapping (address => uint) public balances;\r\n\r\n    // events allow light clients to react to changes efficiently\r\n    event Transfer(address indexed from, address indexed to, uint amount);\r\n\r\n    // this is the constructor whose code is run only when the contract is created\r\n    constructor (address ItemListContractAddress) public {\r\n        iL = ItemListing(ItemListContractAddress);\r\n        seller = iL.getSellerAdd();                                             // pass the seller_add to this contract\r\n        itemAmt = iL.getItemPrice();                                            // set the item price (in ether)\r\n    }\r\n\r\n    function () external payable { }\r\n\r\n    // payment buyer to escrow - will display to buyer escrow address so buyer can send it to escrow instead of seller\r\n    function buyerToEscrow(address payable _recevier) public payable {\r\n        require(msg.value == getItemAmt(), \"Input wrong payment amount.\");\r\n        require(msg.value <= getAccBal(msg.sender), \"Insufficient balance.\");   // check buyer balance got sufficient funds\r\n        _recevier.transfer(msg.value);                                          // send money to recevier (the contract address)\r\n        buyer = msg.sender;                                                     // when buyer click on buy, buyer will create the contract\r\n        start = now;                                                            //now is an alias for block.timestamp, not really \"now\"\r\n        emit Transfer(msg.sender, _recevier, msg.value);\r\n    }\r\n\r\n    // escrow release funds to seller\r\n    function escrowToSeller(address payable _recevier) public payable {\r\n        uint amt = getItemAmt();\r\n        require(_recevier == seller, \"Error during fund release.\");\r\n        require(amt <= getContractBal(), \"Error.\");                             // check escrow balance got sufficient funds\r\n        //balances[escrow] -= amt;                                              // deduct money from escrow\r\n        //balances[seller] += amt;                                              // add money to seller\r\n        _recevier.transfer(address(this).balance);\r\n        //emit Transfer(escrow, seller, amt);\r\n    }\r\n\r\n    // get constructor - whose creating the contract (buyer)\r\n    function getBuyerAdd() public view returns (address) {\r\n        return buyer;\r\n    }\r\n\r\n    // get constructor - the amount the buyer is paying\r\n    function getMsgValue() public payable returns (uint) {\r\n        return msg.value;\r\n    }\r\n\r\n    // get constructor - the contract address\r\n    function getEscrowContractAdd() public view returns (address) {\r\n        return address(this);\r\n    }\r\n\r\n    // get constructor - ItemAmt\r\n    function getItemAmt() public view returns (uint) {\r\n        return itemAmt*1e18;                                                    // convert uint to wei\r\n    }\r\n\r\n    // get constructor - balance from specific address\r\n    function getAccBal(address _account) public view returns (uint) {\r\n        return _account.balance;                                                // we can convert wei to ether by dividing it with 1e18\r\n    }\r\n\r\n    //get constructor - balance of the contract\r\n    function getContractBal() public view returns (uint) {\r\n        return address(this).balance;\r\n    }\r\n}",
  "sourcePath": "C:/xampp/htdocs/Blockchain-Eshop-WebApp/contracts/Escrow.sol",
  "compiler": {
    "name": "solc",
    "version": "0.5.0+commit.1d4f565a.Emscripten.clang"
  },
  "schemaVersion": "3.0.2",
  "updatedAt": "2019-03-20T16:30:07.134Z",
  "devdoc": {
    "methods": {}
  },
  "userdoc": {
    "methods": {}
  }
}