{
  "contractName": "EscrowCon",
  "abi": [
    {
      "constant": true,
      "inputs": [
        {
          "name": "",
          "type": "address"
        }
      ],
      "name": "balances",
      "outputs": [
        {
          "name": "",
          "type": "uint256"
        }
      ],
      "payable": false,
      "stateMutability": "view",
      "type": "function"
    },
    {
      "inputs": [
        {
          "name": "ItemListContractAddress",
          "type": "address"
        }
      ],
      "payable": false,
      "stateMutability": "nonpayable",
      "type": "constructor"
    },
    {
      "payable": true,
      "stateMutability": "payable",
      "type": "fallback"
    },
    {
      "anonymous": false,
      "inputs": [
        {
          "indexed": true,
          "name": "from",
          "type": "address"
        },
        {
          "indexed": true,
          "name": "to",
          "type": "address"
        },
        {
          "indexed": false,
          "name": "amount",
          "type": "uint256"
        }
      ],
      "name": "Transfer",
      "type": "event"
    },
    {
      "constant": false,
      "inputs": [
        {
          "name": "_recevier",
          "type": "address"
        }
      ],
      "name": "buyerToEscrow",
      "outputs": [
        {
          "name": "",
          "type": "bool"
        }
      ],
      "payable": true,
      "stateMutability": "payable",
      "type": "function"
    },
    {
      "constant": false,
      "inputs": [
        {
          "name": "_recevier",
          "type": "address"
        }
      ],
      "name": "escrowToSeller",
      "outputs": [],
      "payable": true,
      "stateMutability": "payable",
      "type": "function"
    },
    {
      "constant": true,
      "inputs": [],
      "name": "getBuyerAdd",
      "outputs": [
        {
          "name": "",
          "type": "address"
        }
      ],
      "payable": false,
      "stateMutability": "view",
      "type": "function"
    },
    {
      "constant": true,
      "inputs": [],
      "name": "getSellerAdd",
      "outputs": [
        {
          "name": "",
          "type": "address"
        }
      ],
      "payable": false,
      "stateMutability": "view",
      "type": "function"
    },
    {
      "constant": false,
      "inputs": [],
      "name": "getMsgValue",
      "outputs": [
        {
          "name": "",
          "type": "uint256"
        }
      ],
      "payable": true,
      "stateMutability": "payable",
      "type": "function"
    },
    {
      "constant": true,
      "inputs": [],
      "name": "getEscrowContractAdd",
      "outputs": [
        {
          "name": "",
          "type": "address"
        }
      ],
      "payable": false,
      "stateMutability": "view",
      "type": "function"
    },
    {
      "constant": true,
      "inputs": [],
      "name": "getItemAmt",
      "outputs": [
        {
          "name": "",
          "type": "uint256"
        }
      ],
      "payable": false,
      "stateMutability": "view",
      "type": "function"
    },
    {
      "constant": true,
      "inputs": [
        {
          "name": "_account",
          "type": "address"
        }
      ],
      "name": "getAccBal",
      "outputs": [
        {
          "name": "",
          "type": "uint256"
        }
      ],
      "payable": false,
      "stateMutability": "view",
      "type": "function"
    },
    {
      "constant": true,
      "inputs": [],
      "name": "getContractBal",
      "outputs": [
        {
          "name": "",
          "type": "uint256"
        }
      ],
      "payable": false,
      "stateMutability": "view",
      "type": "function"
    }
  ],
  "bytecode": "0x608060405234801561001057600080fd5b50604051602080610a7f8339810180604052602081101561003057600080fd5b810190808051906020019092919050505080600560006101000a81548173ffffffffffffffffffffffffffffffffffffffff021916908373ffffffffffffffffffffffffffffffffffffffff160217905550600560009054906101000a900473ffffffffffffffffffffffffffffffffffffffff1673ffffffffffffffffffffffffffffffffffffffff1663097086106040518163ffffffff167c010000000000000000000000000000000000000000000000000000000002815260040160206040518083038186803b15801561010657600080fd5b505afa15801561011a573d6000803e3d6000fd5b505050506040513d602081101561013057600080fd5b8101908080519060200190929190505050600260006101000a81548173ffffffffffffffffffffffffffffffffffffffff021916908373ffffffffffffffffffffffffffffffffffffffff160217905550600560009054906101000a900473ffffffffffffffffffffffffffffffffffffffff1673ffffffffffffffffffffffffffffffffffffffff16632083ad826040518163ffffffff167c010000000000000000000000000000000000000000000000000000000002815260040160206040518083038186803b15801561020557600080fd5b505afa158015610219573d6000803e3d6000fd5b505050506040513d602081101561022f57600080fd5b810190808051906020019092919050505060008190555050610829806102566000396000f3fe6080604052600436106100a4576000357c0100000000000000000000000000000000000000000000000000000000900463ffffffff16806309708610146100a657806327e235e3146100fd5780634722b082146101625780635c9bb4d21461018d5780635d9fa6fc146101e4578063718056fd1461020f578063a17042cc14610274578063b931b39114610292578063e89c423b146102e9578063f964312f1461032d575b005b3480156100b257600080fd5b506100bb610389565b604051808273ffffffffffffffffffffffffffffffffffffffff1673ffffffffffffffffffffffffffffffffffffffff16815260200191505060405180910390f35b34801561010957600080fd5b5061014c6004803603602081101561012057600080fd5b81019080803573ffffffffffffffffffffffffffffffffffffffff1690602001909291905050506103b3565b6040518082815260200191505060405180910390f35b34801561016e57600080fd5b506101776103cb565b6040518082815260200191505060405180910390f35b34801561019957600080fd5b506101a26103d4565b604051808273ffffffffffffffffffffffffffffffffffffffff1673ffffffffffffffffffffffffffffffffffffffff16815260200191505060405180910390f35b3480156101f057600080fd5b506101f96103dc565b6040518082815260200191505060405180910390f35b34801561021b57600080fd5b5061025e6004803603602081101561023257600080fd5b81019080803573ffffffffffffffffffffffffffffffffffffffff1690602001909291905050506103fb565b6040518082815260200191505060405180910390f35b61027c61041c565b6040518082815260200191505060405180910390f35b34801561029e57600080fd5b506102a7610424565b604051808273ffffffffffffffffffffffffffffffffffffffff1673ffffffffffffffffffffffffffffffffffffffff16815260200191505060405180910390f35b61032b600480360360208110156102ff57600080fd5b81019080803573ffffffffffffffffffffffffffffffffffffffff16906020019092919050505061044e565b005b61036f6004803603602081101561034357600080fd5b81019080803573ffffffffffffffffffffffffffffffffffffffff169060200190929190505050610600565b604051808215151515815260200191505060405180910390f35b6000600260009054906101000a900473ffffffffffffffffffffffffffffffffffffffff16905090565b60066020528060005260406000206000915090505481565b60008054905090565b600030905090565b60003073ffffffffffffffffffffffffffffffffffffffff1631905090565b60008173ffffffffffffffffffffffffffffffffffffffff16319050919050565b600034905090565b6000600160009054906101000a900473ffffffffffffffffffffffffffffffffffffffff16905090565b60006104586103cb565b9050600260009054906101000a900473ffffffffffffffffffffffffffffffffffffffff1673ffffffffffffffffffffffffffffffffffffffff168273ffffffffffffffffffffffffffffffffffffffff1614151561051f576040517f08c379a000000000000000000000000000000000000000000000000000000000815260040180806020018281038252601a8152602001807f4572726f7220647572696e672066756e642072656c656173652e00000000000081525060200191505060405180910390fd5b6105276103dc565b811115151561059e576040517f08c379a00000000000000000000000000000000000000000000000000000000081526004018080602001828103825260068152602001807f4572726f722e000000000000000000000000000000000000000000000000000081525060200191505060405180910390fd5b8173ffffffffffffffffffffffffffffffffffffffff166108fc3073ffffffffffffffffffffffffffffffffffffffff16319081150290604051600060405180830381858888f193505050501580156105fb573d6000803e3d6000fd5b505050565b600061060a6103cb565b34141515610680576040517f08c379a000000000000000000000000000000000000000000000000000000000815260040180806020018281038252601b8152602001807f496e7075742077726f6e67207061796d656e7420616d6f756e742e000000000081525060200191505060405180910390fd5b610689336103fb565b3411151515610700576040517f08c379a00000000000000000000000000000000000000000000000000000000081526004018080602001828103825260158152602001807f496e73756666696369656e742062616c616e63652e000000000000000000000081525060200191505060405180910390fd5b8173ffffffffffffffffffffffffffffffffffffffff166108fc349081150290604051600060405180830381858888f19350505050158015610746573d6000803e3d6000fd5b5033600160006101000a81548173ffffffffffffffffffffffffffffffffffffffff021916908373ffffffffffffffffffffffffffffffffffffffff160217905550426004819055508173ffffffffffffffffffffffffffffffffffffffff163373ffffffffffffffffffffffffffffffffffffffff167fddf252ad1be2c89b69c2b068fc378daa952ba7f163c4a11628f55a4df523b3ef346040518082815260200191505060405180910390a36001905091905056fea165627a7a72305820d7140293c086df27c3e104fd4257ae92c5372360e73e9c2be47992f192df31a00029",
  "source": "// USES REMIX compile version: \"Current version:0.5.5-nightly.2019.2.28+commit.e954d83.Emscripten.clang\"\r\n// REMIX requires buyerToEscrow(address payable _recevier) and escrowToSeller(address payable _recevier) instead\r\n\r\n// Contract address => escrow (use truffle to get the contract address when deployed)\r\n// Account 0 => seller address\r\n// Account 1 => buyer address\r\n\r\n// convert 1 ether = 1*1e18 wei\r\n\r\npragma solidity >= 0.4.0 < 0.6.0;\r\n\r\ncontract ItemListing {\r\n    \r\n    uint private itemPrice;                                                 // price of the item\r\n    string private itemName;                                                // name of the item\r\n    address private curr_selleradd;                                         // address of the seller selling this item\r\n    uint private prodId;                                                    // the id of item\r\n\r\n    constructor () public payable {\r\n        curr_selleradd = msg.sender;\r\n    }\r\n\r\n    function ItemList (uint prod_id, string memory item_Name, uint item_Price) public returns (uint) {\r\n        prodId = prod_id;\r\n        itemName = item_Name;\r\n        itemPrice = item_Price;                                             // price is in wei      \r\n        return 1;\r\n    }\r\n\r\n    // get constructor - ItemPrice\r\n    function getItemPrice() public view returns (uint) {\r\n        return itemPrice;   \r\n    }\r\n\r\n    //get constructor - ItemName\r\n    function getItemName() public view returns (string memory) {\r\n        return itemName;\r\n    }\r\n    \r\n    //get constructor - ProdID\r\n    function getProdID() public view returns (uint) {\r\n        return prodId;\r\n    }\r\n    \r\n    // get constructor - whose creating the contract (seller)\r\n    function getSellerAdd() public view returns (address) {\r\n        return curr_selleradd;\r\n    }\r\n    \r\n    // get constructor - the contract address\r\n    function getItemListContractAdd() public view returns (address) {\r\n        return address(this);\r\n    }\r\n}\r\n\r\ncontract EscrowCon {\r\n    uint private itemAmt;                                                       // the price of the item\r\n    address private buyer;                                                      // buyer address\r\n    address private seller;                                                     // seller address\r\n    address payable escrowContractAdd;                                          // escrow contract address\r\n    uint private start;                                                         // set the timestamp\r\n    ItemListing iL;\r\n\r\n    // maps addresses to balances e.g. hashtables\r\n    mapping (address => uint) public balances;\r\n\r\n    // events allow light clients to react to changes efficiently\r\n    event Transfer(address indexed from, address indexed to, uint amount);\r\n\r\n    // this is the constructor whose code is run only when the contract is created\r\n    constructor (address ItemListContractAddress) public {\r\n        iL = ItemListing(ItemListContractAddress);\r\n        seller = iL.getSellerAdd();                                             // pass the seller_add to this contract\r\n        itemAmt = iL.getItemPrice();                                            // set the item price (in wei)\r\n    }\r\n\r\n    function () external payable { }\r\n\r\n    // payment buyer to escrow - will display to buyer escrow address so buyer  \r\n    // SEND IT TO ESCROW instead of seller\r\n    function buyerToEscrow(address payable _recevier) public payable returns (bool) {\r\n        require(msg.value == getItemAmt(), \"Input wrong payment amount.\");      // payment made in wei\r\n        require(msg.value <= getAccBal(msg.sender), \"Insufficient balance.\");   // check buyer balance got sufficient funds\r\n        //require(msg.sender != seller, \"Buyer is seller.\");                      // check that seller is not buying its own item\r\n         //escrowContractAdd = address(this);                                   // put this contract address to a payable address escrowContractAdd\r\n        _recevier.transfer(msg.value);                                          // send money to recevier (the contract address)\r\n        buyer = msg.sender;                                                     // when buyer click on buy, buyer will create the contract\r\n        start = now;                                                            //now is an alias for block.timestamp, not really \"now\"\r\n        emit Transfer(msg.sender, _recevier, msg.value);\r\n        return true;\r\n    }\r\n\r\n    // escrow release funds to seller\r\n    function escrowToSeller(address payable _recevier) public payable {\r\n        uint amt = getItemAmt();       \r\n        require(_recevier == seller, \"Error during fund release.\");             // check that address inputted by system is seller address\r\n        require(amt <= getContractBal(), \"Error.\");                             // check escrow balance got sufficient funds\r\n        //balances[escrow] -= amt;                                              // deduct money from escrow\r\n        //balances[seller] += amt;                                              // add money to seller\r\n        _recevier.transfer(address(this).balance);\r\n        //emit Transfer(escrow, seller, amt);\r\n    }\r\n\r\n    // get constructor - whose creating the contract (buyer)\r\n    function getBuyerAdd() public view returns (address) {\r\n        return buyer;\r\n    }\r\n\r\n    // get constructor - seller address\r\n    function getSellerAdd() public view returns (address) {\r\n        return seller;\r\n    }\r\n\r\n    // get constructor - the amount the buyer is paying\r\n    function getMsgValue() public payable returns (uint) {\r\n        return msg.value;\r\n    }\r\n\r\n    // get constructor - the contract address\r\n    function getEscrowContractAdd() public view returns (address) {\r\n        return address(this);\r\n    }\r\n\r\n    // get constructor - ItemAmt\r\n    function getItemAmt() public view returns (uint) {\r\n        return itemAmt;                                                    \r\n    }\r\n\r\n    // get constructor - balance from specific address\r\n    function getAccBal(address _account) public view returns (uint) {\r\n        return _account.balance;                                                // we can convert wei to ether by dividing it with 1e18\r\n    }\r\n\r\n    //get constructor - balance of the contract\r\n    function getContractBal() public view returns (uint) {\r\n        return address(this).balance;\r\n    }\r\n}",
  "sourcePath": "C:/xampp/htdocs/Blockchain-Eshop-WebApp/contracts/Escrow.sol",
  "compiler": {
    "name": "solc",
    "version": "0.5.0+commit.1d4f565a.Emscripten.clang"
  },
  "schemaVersion": "3.0.2",
  "updatedAt": "2019-03-23T10:37:29.751Z",
  "devdoc": {
    "methods": {}
  },
  "userdoc": {
    "methods": {}
  }
}