{
  "contractName": "ItemListing",
  "abi": [
    {
      "inputs": [],
      "payable": true,
      "stateMutability": "payable",
      "type": "constructor"
    },
    {
      "constant": false,
      "inputs": [
        {
          "name": "prod_id",
          "type": "uint256"
        },
        {
          "name": "item_Name",
          "type": "string"
        },
        {
          "name": "item_Price",
          "type": "uint256"
        }
      ],
      "name": "ItemList",
      "outputs": [
        {
          "name": "",
          "type": "uint256"
        }
      ],
      "payable": false,
      "stateMutability": "nonpayable",
      "type": "function"
    },
    {
      "constant": true,
      "inputs": [],
      "name": "getItemPrice",
      "outputs": [
        {
          "name": "",
          "type": "uint256"
        }
      ],
      "payable": false,
      "stateMutability": "view",
      "type": "function"
    },
    {
      "constant": true,
      "inputs": [],
      "name": "getItemName",
      "outputs": [
        {
          "name": "",
          "type": "string"
        }
      ],
      "payable": false,
      "stateMutability": "view",
      "type": "function"
    },
    {
      "constant": true,
      "inputs": [],
      "name": "getProdID",
      "outputs": [
        {
          "name": "",
          "type": "uint256"
        }
      ],
      "payable": false,
      "stateMutability": "view",
      "type": "function"
    },
    {
      "constant": true,
      "inputs": [],
      "name": "getSellerAdd",
      "outputs": [
        {
          "name": "",
          "type": "address"
        }
      ],
      "payable": false,
      "stateMutability": "view",
      "type": "function"
    },
    {
      "constant": true,
      "inputs": [],
      "name": "getItemListContractAdd",
      "outputs": [
        {
          "name": "",
          "type": "address"
        }
      ],
      "payable": false,
      "stateMutability": "view",
      "type": "function"
    }
  ],
  "bytecode": "0x608060405233600260006101000a81548173ffffffffffffffffffffffffffffffffffffffff021916908373ffffffffffffffffffffffffffffffffffffffff1602179055506104eb806100546000396000f3fe608060405260043610610078576000357c0100000000000000000000000000000000000000000000000000000000900463ffffffff168063097086101461007d5780632083ad82146100d45780632722c09d146100ff57806337a3e87f146101ef578063c819d85a14610246578063ea2fef20146102d6575b600080fd5b34801561008957600080fd5b50610092610301565b604051808273ffffffffffffffffffffffffffffffffffffffff1673ffffffffffffffffffffffffffffffffffffffff16815260200191505060405180910390f35b3480156100e057600080fd5b506100e961032b565b6040518082815260200191505060405180910390f35b34801561010b57600080fd5b506101d96004803603606081101561012257600080fd5b81019080803590602001909291908035906020019064010000000081111561014957600080fd5b82018360208201111561015b57600080fd5b8035906020019184600183028401116401000000008311171561017d57600080fd5b91908080601f016020809104026020016040519081016040528093929190818152602001838380828437600081840152601f19601f82011690508083019250505050505050919291929080359060200190929190505050610334565b6040518082815260200191505060405180910390f35b3480156101fb57600080fd5b50610204610366565b604051808273ffffffffffffffffffffffffffffffffffffffff1673ffffffffffffffffffffffffffffffffffffffff16815260200191505060405180910390f35b34801561025257600080fd5b5061025b61036e565b6040518080602001828103825283818151815260200191508051906020019080838360005b8381101561029b578082015181840152602081019050610280565b50505050905090810190601f1680156102c85780820380516001836020036101000a031916815260200191505b509250505060405180910390f35b3480156102e257600080fd5b506102eb610410565b6040518082815260200191505060405180910390f35b6000600260009054906101000a900473ffffffffffffffffffffffffffffffffffffffff16905090565b60008054905090565b600083600381905550826001908051906020019061035392919061041a565b5081600081905550600190509392505050565b600030905090565b606060018054600181600116156101000203166002900480601f0160208091040260200160405190810160405280929190818152602001828054600181600116156101000203166002900480156104065780601f106103db57610100808354040283529160200191610406565b820191906000526020600020905b8154815290600101906020018083116103e957829003601f168201915b5050505050905090565b6000600354905090565b828054600181600116156101000203166002900490600052602060002090601f016020900481019282601f1061045b57805160ff1916838001178555610489565b82800160010185558215610489579182015b8281111561048857825182559160200191906001019061046d565b5b509050610496919061049a565b5090565b6104bc91905b808211156104b85760008160009055506001016104a0565b5090565b9056fea165627a7a723058203f1aab936e5cd4ad98b88f2420927b9480fe212b5a9b84dbbb276ba7f41d32740029",
  "source": "// USES REMIX compile version: \"Current version:0.5.5-nightly.2019.2.28+commit.e954d83.Emscripten.clang\"\r\n// REMIX requires buyerToEscrow(address payable _recevier) and escrowToSeller(address payable _recevier) instead\r\n\r\n// Contract address => escrow (use truffle to get the contract address when deployed)\r\n// Account 0 => seller address\r\n// Account 1 => buyer address\r\n\r\n// convert 1 ether = 1*1e18 wei\r\n\r\npragma solidity >= 0.4.0 < 0.6.0;\r\n\r\ncontract ItemListing {\r\n    \r\n    uint private itemPrice;                                                 // price of the item\r\n    string private itemName;                                                // name of the item\r\n    address private curr_selleradd;                                         // address of the seller selling this item\r\n    uint private prodId;                                                    // the id of item\r\n\r\n    constructor () public payable {\r\n        curr_selleradd = msg.sender;\r\n    }\r\n\r\n    function ItemList (uint prod_id, string memory item_Name, uint item_Price) public returns (uint) {\r\n        prodId = prod_id;\r\n        itemName = item_Name;\r\n        itemPrice = item_Price;                                             // price is in wei      \r\n        return 1;\r\n    }\r\n\r\n    // get constructor - ItemPrice\r\n    function getItemPrice() public view returns (uint) {\r\n        return itemPrice;   \r\n    }\r\n\r\n    //get constructor - ItemName\r\n    function getItemName() public view returns (string memory) {\r\n        return itemName;\r\n    }\r\n    \r\n    //get constructor - ProdID\r\n    function getProdID() public view returns (uint) {\r\n        return prodId;\r\n    }\r\n    \r\n    // get constructor - whose creating the contract (seller)\r\n    function getSellerAdd() public view returns (address) {\r\n        return curr_selleradd;\r\n    }\r\n    \r\n    // get constructor - the contract address\r\n    function getItemListContractAdd() public view returns (address) {\r\n        return address(this);\r\n    }\r\n}\r\n\r\ncontract EscrowCon {\r\n    uint private itemAmt;                                                       // the price of the item\r\n    address private buyer;                                                      // buyer address\r\n    address private seller;                                                     // seller address\r\n    address payable escrowContractAdd;                                          // escrow contract address\r\n    uint private start;                                                         // set the timestamp\r\n    ItemListing iL;\r\n\r\n    // maps addresses to balances e.g. hashtables\r\n    mapping (address => uint) public balances;\r\n\r\n    // events allow light clients to react to changes efficiently\r\n    event Transfer(address indexed from, address indexed to, uint amount);\r\n\r\n    // this is the constructor whose code is run only when the contract is created\r\n    constructor (address ItemListContractAddress) public {\r\n        iL = ItemListing(ItemListContractAddress);\r\n        seller = iL.getSellerAdd();                                             // pass the seller_add to this contract\r\n        itemAmt = iL.getItemPrice();                                            // set the item price (in wei)\r\n    }\r\n\r\n    function () external payable { }\r\n\r\n    // payment buyer to escrow - will display to buyer escrow address so buyer  \r\n    // SEND IT TO ESCROW instead of seller\r\n    function buyerToEscrow(address payable _recevier) public payable returns (bool) {\r\n        require(msg.value == getItemAmt(), \"Input wrong payment amount.\");      // payment made in wei\r\n        require(msg.value <= getAccBal(msg.sender), \"Insufficient balance.\");   // check buyer balance got sufficient funds\r\n        //require(msg.sender != seller, \"Buyer is seller.\");                      // check that seller is not buying its own item\r\n         //escrowContractAdd = address(this);                                   // put this contract address to a payable address escrowContractAdd\r\n        _recevier.transfer(msg.value);                                          // send money to recevier (the contract address)\r\n        buyer = msg.sender;                                                     // when buyer click on buy, buyer will create the contract\r\n        start = now;                                                            //now is an alias for block.timestamp, not really \"now\"\r\n        emit Transfer(msg.sender, _recevier, msg.value);\r\n        return true;\r\n    }\r\n\r\n    // escrow release funds to seller\r\n    function escrowToSeller(address payable _recevier) public payable {\r\n        uint amt = getItemAmt();       \r\n        require(_recevier == seller, \"Error during fund release.\");             // check that address inputted by system is seller address\r\n        require(amt <= getContractBal(), \"Error.\");                             // check escrow balance got sufficient funds\r\n        //balances[escrow] -= amt;                                              // deduct money from escrow\r\n        //balances[seller] += amt;                                              // add money to seller\r\n        _recevier.transfer(address(this).balance);\r\n        //emit Transfer(escrow, seller, amt);\r\n    }\r\n\r\n    // get constructor - whose creating the contract (buyer)\r\n    function getBuyerAdd() public view returns (address) {\r\n        return buyer;\r\n    }\r\n\r\n    // get constructor - seller address\r\n    function getSellerAdd() public view returns (address) {\r\n        return seller;\r\n    }\r\n\r\n    // get constructor - the amount the buyer is paying\r\n    function getMsgValue() public payable returns (uint) {\r\n        return msg.value;\r\n    }\r\n\r\n    // get constructor - the contract address\r\n    function getEscrowContractAdd() public view returns (address) {\r\n        return address(this);\r\n    }\r\n\r\n    // get constructor - ItemAmt\r\n    function getItemAmt() public view returns (uint) {\r\n        return itemAmt;                                                    \r\n    }\r\n\r\n    // get constructor - balance from specific address\r\n    function getAccBal(address _account) public view returns (uint) {\r\n        return _account.balance;                                                // we can convert wei to ether by dividing it with 1e18\r\n    }\r\n\r\n    //get constructor - balance of the contract\r\n    function getContractBal() public view returns (uint) {\r\n        return address(this).balance;\r\n    }\r\n}",
  "sourcePath": "C:/xampp/htdocs/Blockchain-Eshop-WebApp/contracts/Escrow.sol",
  "compiler": {
    "name": "solc",
    "version": "0.5.0+commit.1d4f565a.Emscripten.clang"
  },
  "schemaVersion": "3.0.2",
  "updatedAt": "2019-03-23T10:37:29.755Z",
  "devdoc": {
    "methods": {}
  },
  "userdoc": {
    "methods": {}
  }
}