{
  "contractName": "ItemListing",
  "abi": [
    {
      "inputs": [
        {
          "name": "UsersContractAddress",
          "type": "address"
        }
      ],
      "payable": false,
      "stateMutability": "nonpayable",
      "type": "constructor",
      "signature": "constructor"
    },
    {
      "constant": false,
      "inputs": [
        {
          "name": "prod_id",
          "type": "int256"
        },
        {
          "name": "phone_No",
          "type": "int256"
        }
      ],
      "name": "ItemList",
      "outputs": [],
      "payable": false,
      "stateMutability": "nonpayable",
      "type": "function",
      "signature": "0x67a19b6d"
    },
    {
      "constant": true,
      "inputs": [
        {
          "name": "prod_id",
          "type": "int256"
        }
      ],
      "name": "getSellerAdd",
      "outputs": [
        {
          "name": "",
          "type": "address"
        }
      ],
      "payable": false,
      "stateMutability": "view",
      "type": "function",
      "signature": "0xaebc700f"
    },
    {
      "constant": true,
      "inputs": [
        {
          "name": "prod_id",
          "type": "int256"
        }
      ],
      "name": "getSellerRep",
      "outputs": [
        {
          "name": "",
          "type": "bool"
        }
      ],
      "payable": false,
      "stateMutability": "view",
      "type": "function",
      "signature": "0x66b3c1fa"
    }
  ],
  "bytecode": "0x608060405234801561001057600080fd5b506040516020806105308339810180604052602081101561003057600080fd5b8101908080519060200190929190505050806000806101000a81548173ffffffffffffffffffffffffffffffffffffffff021916908373ffffffffffffffffffffffffffffffffffffffff1602179055505061049f806100916000396000f3fe608060405260043610610057576000357c0100000000000000000000000000000000000000000000000000000000900463ffffffff16806366b3c1fa1461005c57806367a19b6d146100af578063aebc700f146100f4575b600080fd5b34801561006857600080fd5b506100956004803603602081101561007f57600080fd5b810190808035906020019092919050505061016f565b604051808215151515815260200191505060405180910390f35b3480156100bb57600080fd5b506100f2600480360360408110156100d257600080fd5b810190808035906020019092919080359060200190929190505050610275565b005b34801561010057600080fd5b5061012d6004803603602081101561011757600080fd5b8101908080359060200190929190505050610436565b604051808273ffffffffffffffffffffffffffffffffffffffff1673ffffffffffffffffffffffffffffffffffffffff16815260200191505060405180910390f35b60008060009054906101000a900473ffffffffffffffffffffffffffffffffffffffff1673ffffffffffffffffffffffffffffffffffffffff16630549de9c6101b784610436565b6040518263ffffffff167c0100000000000000000000000000000000000000000000000000000000028152600401808273ffffffffffffffffffffffffffffffffffffffff1673ffffffffffffffffffffffffffffffffffffffff16815260200191505060206040518083038186803b15801561023357600080fd5b505afa158015610247573d6000803e3d6000fd5b505050506040513d602081101561025d57600080fd5b81019080805190602001909291905050509050919050565b6000809054906101000a900473ffffffffffffffffffffffffffffffffffffffff1673ffffffffffffffffffffffffffffffffffffffff1663d0f86c9d826040518263ffffffff167c01000000000000000000000000000000000000000000000000000000000281526004018082815260200191505060206040518083038186803b15801561030357600080fd5b505afa158015610317573d6000803e3d6000fd5b505050506040513d602081101561032d57600080fd5b810190808051906020019092919050505073ffffffffffffffffffffffffffffffffffffffff163373ffffffffffffffffffffffffffffffffffffffff161415156103e0576040517f08c379a000000000000000000000000000000000000000000000000000000000815260040180806020018281038252600e8152602001807f57726f6e67206163636f756e742e00000000000000000000000000000000000081525060200191505060405180910390fd5b336002600084815260200190815260200160002060006101000a81548173ffffffffffffffffffffffffffffffffffffffff021916908373ffffffffffffffffffffffffffffffffffffffff1602179055505050565b60006002600083815260200190815260200160002060009054906101000a900473ffffffffffffffffffffffffffffffffffffffff16905091905056fea165627a7a723058203cc2d3b2ffa84d612629c35825c7af6cf1af9b007f2e25a480028909b3471eb90029",
  "source": "// USES REMIX compile version: \"Current version:0.5.5-nightly.2019.2.28+commit.e954d83.Emscripten.clang\"\r\n// REMIX requires buyerToEscrow(address payable _recevier) and escrowToSeller(address payable _recevier) instead\r\n\r\n// selfdestruct(address) - sends all of the contract's current balance to address\r\n\r\n// Contract address => escrow (use truffle to get the contract address when deployed)\r\n// Account 0 => seller address\r\n// Account 1 => buyer address\r\n\r\n// convert 1 ether = 1*1e18 wei\r\n\r\n// ALL payments in contract are made in wei\r\n// buyerToEscrow() - receiver is escrow contractadd\r\n// escrowToSeller() - receiver is seller contractadd\r\n\r\npragma solidity >= 0.4.0 < 0.6.0;\r\n\r\ncontract Users {\r\n    \r\n    struct Entry {\r\n        address userAdd;\r\n        bool used;\r\n    }\r\n    \r\n    mapping (int256 => Entry) private users;\r\n    address[] private userAccts;\r\n    \r\n    address private owner;\r\n    \r\n    constructor() public {\r\n        owner = msg.sender;\r\n    }\r\n\r\n    // add user phone account and ethereum address to prevent duplicate account made\r\n    function addUser(int256 phone_No) public {\r\n        require(!users[phone_No].used, \"This phone number is invalid for use.\");\r\n        require(!getExistingAdd(msg.sender), \"This ethereum account is invalid for use.\");\r\n        users[phone_No] = Entry(msg.sender, true);\r\n        userAccts.push(msg.sender);\r\n    }\r\n    \r\n    // get the user address based on their phone number\r\n    function getUser(int phone_No) public view returns (address) {\r\n        return users[phone_No].userAdd;\r\n    }\r\n    \r\n    // if address is added before in userAccts, then return true. otherwise, false \r\n    function getExistingAdd(address _address) public view returns (bool) {\r\n        for (uint256 i = 0; i < userAccts.length; i++) {\r\n            if (userAccts[i] == _address)\r\n                return true;\r\n        }\r\n        return false;\r\n    }\r\n    \r\n    // if users want to edit their linked ethereum account to another account number\r\n    function editAdd(int256 phone_No) public {\r\n        users[phone_No] = Entry(msg.sender, true);\r\n    }\r\n    \r\n     // get constructor - whose creating the contract (seller)\r\n    function getOwnerAdd() public view returns (address) {\r\n        return owner;\r\n    }\r\n    \r\n    // REPUTATION SYSTEM FOR SELLER\r\n    // struct Feedback {\r\n    //     uint score;\r\n    //     uint date;\r\n    //     address contractAdd;                // order contract address\r\n    //     address submittedBy;                // buyer address\r\n    // }\r\n    \r\n    mapping (address => bool) orderlists;               // ensure that its a list of correct order contract\r\n    //mapping (address => Feedback) feedback;\r\n    mapping (address => uint256) public totalCount;\r\n    mapping (address => uint256) public scoreSum;\r\n    address sellerAdd;\r\n    \r\n    mapping (address => uint256) public refundCount;\r\n    mapping (address => uint256) public orderCount;\r\n    address buyerAdd;\r\n    \r\n    event SubmitFeedback(address indexed _from, address indexed _to, address indexed _orderAddress, uint date, uint _score);\r\n    \r\n    // when buyer submit feedback - buyer phone number\r\n    function submitFeedback(address _orderAddress, uint _score, int256 buyer_phoneNo, int256 seller_phoneNo) public {\r\n        require(msg.sender == getUser(buyer_phoneNo), \"Wrong account.\");        // check that seller is using the linked ethereum account\r\n        require(_score >= 0 && _score <= 5);\r\n        require(!orderlists[_orderAddress], \"Order address is invalid for use.\");\r\n        // require(_orderAddress != address(0));\r\n    \r\n        sellerAdd = getUser(seller_phoneNo);\r\n        buyerAdd = getUser(buyer_phoneNo);\r\n        \r\n        // feedback[sellerAdd].date = now;\r\n        // feedback[sellerAdd].contractAdd = _orderAddress;\r\n        // feedback[sellerAdd].submittedBy = msg.sender;\r\n        \r\n        orderlists[_orderAddress] = true;\r\n        \r\n        totalCount[sellerAdd]++; \r\n\r\n        if (!getSellerRep(sellerAdd) && getBuyerRep(buyerAdd) && _score < 5) {  \r\n            // low rep buyer grades for normal rep seller\r\n            // feedback[sellerAdd].score = (_score + 1);\r\n            scoreSum[sellerAdd] += (_score + 1);\r\n        } else {\r\n            // feedback[sellerAdd].score = _score;\r\n            scoreSum[sellerAdd] += _score;\r\n        }\r\n\r\n        emit SubmitFeedback(msg.sender, sellerAdd, _orderAddress, now, _score);\r\n        \r\n       \r\n    }\r\n    \r\n    // input order address in to check\r\n    // function addOrderContract(address _orderAddress) public {\r\n        \r\n    // }\r\n    \r\n    // get average score for seller\r\n    function getScoreAverage(address _sellerAdd) public view returns (uint) {\r\n        uint overall;\r\n        if (totalCount[_sellerAdd] == 0) {\r\n            // new account; return 3 to give user a normal rep account\r\n            return 3;\r\n        } else {\r\n            overall = scoreSum[_sellerAdd] / totalCount[_sellerAdd];\r\n            if (overall < 0) {\r\n                return 0;\r\n            }\r\n        }\r\n        return overall;\r\n    }\r\n    \r\n    // get the seller reputation\r\n    function getSellerRep(address _sellerAdd) public view returns (bool) {\r\n        if (getScoreAverage(_sellerAdd) <= 2) \r\n            return true;\r\n        return false;\r\n    }\r\n    \r\n    // REPUTATION SYSTEM FOR BUYER\r\n    function addRefundCount(address _buyerAdd, bool refund) public {\r\n        if (refund)\r\n            refundCount[_buyerAdd]++;\r\n        orderCount[_buyerAdd]++;\r\n    }\r\n    \r\n    // get average score for user\r\n    function getRefundAverage(address _buyerAdd) public view returns (uint) {\r\n        uint overall;\r\n        if (orderCount[_buyerAdd] == 0) {\r\n            // new account; return 0 to give user a normal rep account\r\n            return 0;\r\n        } else {\r\n            overall = refundCount[_buyerAdd]*100 / orderCount[_buyerAdd];\r\n            if (overall < 0) {\r\n                return 0;\r\n            }\r\n        }\r\n        return overall;\r\n    }\r\n    \r\n    // get the buyer reputation\r\n    function getBuyerRep(address _buyerAdd) public view returns (bool) {\r\n        if (getRefundAverage(_buyerAdd) > 50) \r\n            return true;\r\n        return false;\r\n    }\r\n    \r\n}\r\n\r\ncontract ItemListing {\r\n\r\n    Users user;\r\n    address seller;\r\n    mapping (int256 => address) productList;\r\n    \r\n    constructor (address UsersContractAddress) public {\r\n        user = Users(UsersContractAddress);\r\n    }\r\n\r\n    function ItemList (int256 prod_id, int256 phone_No) public {\r\n        require(msg.sender == user.getUser(phone_No), \"Wrong account.\");        // check that seller is using the linked ethereum account\r\n        productList[prod_id] = msg.sender;\r\n    }\r\n    \r\n    // get constructor - whose creating the contract (seller)\r\n    function getSellerAdd(int256 prod_id) public view returns (address) {\r\n        return productList[prod_id];\r\n    }\r\n\r\n    // get constructor - the specific seller's reputation\r\n    function getSellerRep(int256 prod_id) public view returns (bool) {\r\n        return user.getSellerRep(getSellerAdd(prod_id));\r\n    }\r\n    \r\n}\r\n\r\ncontract EscrowCon {\r\n    uint256 private itemAmt;                                                    // the price of the item\r\n    address payable buyer;                                                      // buyer address\r\n    address payable seller;                                                     // seller address\r\n    address payable owner;                                                      // owner address\r\n    uint256 private cancelDate;                                                 // set the timestamp\r\n    uint256 private shipDate;                                                   // set the timestamp\r\n    uint256 private ownerCut;\r\n    bool buyerAcceptSlip;                                                       // buyer accept shipping slip\r\n    bool buyerCancelOrder;                                                      // buyer cancel order\r\n    bool sellerUpdateSlip;                                                      // seller update shipping slip\r\n    bool lowRepSeller;                                                          // seller is low reputation\r\n    bool lowRepBuyer;                                                           // buyer is low reputation\r\n    Users user;\r\n    \r\n    // maps addresses to balances e.g. hashtables\r\n    //mapping (address => uint256) public balances;\r\n\r\n    // events allow light clients to react to changes efficiently\r\n    event Transfer(address indexed from, address indexed to, uint256 amount);\r\n\r\n    // this is the constructor whose code is run only when the contract is created\r\n    constructor (address ItemListContractAddress, address UsersContractAddress, uint256 item_Price, int256 phone_No, int256 prod_id) public {\r\n        ItemListing iL = ItemListing(ItemListContractAddress);\r\n        user = Users(UsersContractAddress);\r\n        require(msg.sender == user.getUser(phone_No), \"Wrong account.\");        // check that user is using the linked ethereum account\r\n        seller = address(uint160(iL.getSellerAdd(prod_id)));                    // pass the seller_add to this contract\r\n        owner = address(uint160(user.getOwnerAdd()));\r\n        buyer = address(uint160(msg.sender));\r\n        itemAmt = item_Price;                                                   // set the item price (in wei)\r\n        lowRepSeller = user.getSellerRep(seller);        \r\n        lowRepBuyer = user.getBuyerRep(buyer);\r\n    }\r\n\r\n    function () external payable { }\r\n\r\n    // payment buyer to escrow - will display to buyer escrow address so buyer  \r\n    // SEND IT TO ESCROW instead of seller\r\n    function buyerToEscrow() public payable {\r\n        require(msg.value <= getAccBal(msg.sender), \"Insufficient balance.\");   // check buyer balance got sufficient funds\r\n        require(msg.sender != seller, \"Buyer is seller.\");                      // check that seller is not buying its own item\r\n        require(msg.sender == buyer, \"Wrong account.\");                         // check that buyer is using the linked ethereum account\r\n        address(this).transfer(msg.value);                                      // send money to recevier (the contract address)\r\n        emit Transfer(msg.sender, address(this), msg.value);\r\n        \r\n    }\r\n\r\n    // escrow release funds to seller (10% to owner, rest to seller)\r\n    function escrowToSeller() public payable {     \r\n        //require(amt <= getContractBal(), \"Error.\");                           // check escrow balance got sufficient funds\r\n        //balances[escrow] -= amt;                                              // deduct money from escrow\r\n        //balances[seller] += amt;                                              // add money to seller\r\n        ownerCut = address(this).balance/10;                                    // 10% cut is owner's\r\n        owner.transfer(ownerCut);\r\n        seller.transfer(address(this).balance - ownerCut);\r\n        emit Transfer(address(this), seller, address(this).balance - ownerCut);\r\n        emit Transfer(address(this), owner, ownerCut);\r\n    }\r\n    \r\n    // escrow release funds to buyer (all to buyer)\r\n    function escrowToBuyer() public payable {\r\n        buyer.transfer(address(this).balance);\r\n        emit Transfer(address(this), buyer, address(this).balance);\r\n    }\r\n    \r\n    // OWNER REFUND\r\n    // escrow release funds to back to buyer - need put set value like buyerToEscrow,\r\n    // so we call getItemAmt() then set the value in javascipt as the item value\r\n    function ownerToBuyer() public payable {    \r\n        require(msg.value <= getAccBal(msg.sender), \"Insufficient balance.\"); \r\n        buyer.transfer(msg.value);\r\n        emit Transfer(owner, buyer, msg.value);\r\n    }\r\n    \r\n    // OWNER GIVE\r\n    // escrow send funds to back to seller - need put set value like buyerToEscrow,\r\n    // so we call getItemAmt() then set the value in javascipt as the item value\r\n    function ownerToSeller() public payable {    \r\n        require(msg.value <= getAccBal(msg.sender), \"Insufficient balance.\"); \r\n        seller.transfer(msg.value - (msg.value/10));\r\n        emit Transfer(owner, seller, msg.value - (msg.value/10));\r\n    }\r\n    \r\n    // BUYER - cancel order\r\n    function cancelOrder() public {\r\n        if (msg.sender == buyer && !sellerUpdateSlip && !buyerCancelOrder) {\r\n            buyerCancelOrder = true;\r\n            cancelDate = now;\r\n        } else {\r\n            revert();\r\n        }\r\n    }\r\n    \r\n    // SELLER - reject order\r\n    function rejectOrder() public {\r\n        require(msg.sender == seller, \"Please use the correct account (seller).\");\r\n        \r\n        escrowToBuyer();\r\n        //selfdestruct(buyer);\r\n    }\r\n    \r\n    // SELLER - update shipping slip\r\n    function uploadSlip() public {\r\n        if (msg.sender == seller) {\r\n            buyerCancelOrder = false;\r\n            sellerUpdateSlip = true;\r\n            shipDate = now;                                                     //now is an alias for block.timestamp, not really \"now\"\r\n        }\r\n       \r\n    }\r\n    \r\n    // BUYER - confirm shipping slip\r\n    function acceptSlip() public {\r\n        if (msg.sender == buyer && !buyerCancelOrder) {\r\n            buyerAcceptSlip = true;\r\n        } else {\r\n            revert();\r\n        }\r\n    }\r\n    \r\n    // BUYER - cancel shipping slip\r\n    function cancelSlip() public {\r\n        if (msg.sender == buyer && !buyerCancelOrder) {\r\n            buyerAcceptSlip = false;\r\n            cancelDate = now;                                                   //now is an alias for block.timestamp, not really \"now\"\r\n        } else {\r\n            revert();\r\n        }\r\n    }\r\n    \r\n    // SELLER - accept buyer's slip cancellation \r\n    function acceptRejectSlip() public {\r\n        if (msg.sender == seller && sellerUpdateSlip && !buyerAcceptSlip) {\r\n            user.addRefundCount(buyer, false);\r\n            escrowToBuyer();\r\n            //selfdestruct(buyer);\r\n        } else {\r\n            revert();\r\n        }\r\n            \r\n    }\r\n\r\n    // SELLER - reject buyer's slip cancellation\r\n    function cancelRejectSlip() public {\r\n        if (msg.sender == seller && sellerUpdateSlip && !buyerAcceptSlip) {\r\n            // if (!lowRepSeller && !lowRepBuyer) {\r\n            //     ownerToBuyer(); do in javascipt code to call ownerToBuyer()\r\n            // }\r\n            user.addRefundCount(buyer, true);\r\n            escrowToSeller();\r\n        } else {\r\n            revert();\r\n        }\r\n        \r\n    }\r\n    \r\n    // BUYER - accept product\r\n    function acceptDelivery() public {\r\n        if (msg.sender == buyer && buyerAcceptSlip){\r\n            user.addRefundCount(buyer, false);\r\n            escrowToSeller();\r\n        } else {\r\n            revert();\r\n        }\r\n    }\r\n    \r\n    // BUYER - reject product\r\n    function cancelDelivery() public {\r\n        if (msg.sender == buyer && buyerAcceptSlip) {\r\n            // payment to SELLER if buyer and seller is normal \r\n            // if (!lowRepSeller && !lowRepBuyer) {\r\n            //     ownerToSeller();\r\n            // } \r\n            user.addRefundCount(buyer, true);\r\n            escrowToBuyer();\r\n        } else {\r\n            revert();\r\n        }\r\n    }\r\n    \r\n    // call this always at accountpage.php\r\n    function checker() public {\r\n        // if buyer cancel order (buyerCancelOrder)\r\n        // check that seller has not update slip \r\n        // + if 1 days passed since buyer cancel order\r\n        if (buyerCancelOrder && !sellerUpdateSlip && now > cancelDate + 1 days) {\r\n            escrowToBuyer();\r\n            //selfdestruct(buyer);\r\n        }\r\n        \r\n        // if buyer rejects shipping slip\r\n        // if sellerOkCancel is constantly false even after 3 days have passed since buyer cancel slip (now > cancelDate + 3 days)\r\n        // + requireOwnerAccess is false\r\n        if (!buyerAcceptSlip && sellerUpdateSlip && now > cancelDate + 3 days) {\r\n            user.addRefundCount(buyer, false);\r\n            escrowToBuyer();\r\n            //selfdestruct(buyer);\r\n        }\r\n\r\n        // buyer accepts product delivery or \r\n        // buyer accepts shipping slip && 45 days have passed since buyer accepts shipping slip && buyer never cancel product delivery\r\n        // SETTLED - IF NEVER BUYER NEVER ACCEPT THE DELIVERY WITHIN CERTAIN DATE THEN??? AUTO SEND OR IF GOT DEFECT THAT WHY THEY NEBER ACCEPT\r\n        if (getContractBal() > 0 && buyerAcceptSlip && now > shipDate + 45 days){\r\n            user.addRefundCount(buyer, false);\r\n            escrowToSeller();\r\n        } \r\n    }\r\n    \r\n    // get constructor - whose creating the contract (buyer)\r\n    function getBuyerAdd() public view returns (address) {\r\n        return buyer;\r\n    }\r\n\r\n    // get constructor - seller address\r\n    function getSellerAdd() public view returns (address) {\r\n        return seller;\r\n    }\r\n\r\n    // get constructor - ItemAmt\r\n    function getItemAmt() public view returns (uint256) {\r\n        return itemAmt;                                                    \r\n    }\r\n\r\n    // get constructor - balance from specific address\r\n    function getAccBal(address _account) public view returns (uint256) {\r\n        return _account.balance;                                                // we can convert wei to ether by dividing it with 1e18\r\n    }\r\n\r\n    //get constructor - balance of the contract\r\n    function getContractBal() public view returns (uint256) {\r\n        return address(this).balance;\r\n    }\r\n    \r\n    // get constructor - reputation of seller\r\n    function getSellerReputation() public view returns (bool) {\r\n        return lowRepSeller;                                                    \r\n    }\r\n    \r\n    // get constructor - reputation of buyer\r\n    function getBuyerReputation() public view returns (bool) {\r\n        return lowRepBuyer;                                                    \r\n    }\r\n}",
  "sourcePath": "C:/xampp/htdocs/Blockchain-Eshop-WebApp/contracts/Eshop.sol",
  "compiler": {
    "name": "solc",
    "version": "0.5.0+commit.1d4f565a.Emscripten.clang"
  },
  "schemaVersion": "3.0.2",
  "updatedAt": "2019-05-10T03:48:15.738Z",
  "devdoc": {
    "methods": {}
  },
  "userdoc": {
    "methods": {}
  }
}